8=FIX.4.4|9=70|35=A|34=1|49=EXECUTOR|52=20240503-20:50:15.853|56=CLIENT1|98=0|108=30|10=089|8=FIX.4.4|9=126|35=3|34=2|49=EXECUTOR|52=20240503-20:50:16.728|56=CLIENT1|45=0|58=The order 1 was reject because the exposition was exceeded.|10=090|8=FIX.4.4|9=136|35=8|34=3|49=EXECUTOR|52=20240503-20:50:17.721|56=CLIENT1|6=822.26|11=2|14=52565|17=1|37=1|38=52565|39=2|40=2|54=2|55=VALE3|150=2|151=0|10=129|8=FIX.4.4|9=136|35=8|34=4|49=EXECUTOR|52=20240503-20:50:18.718|56=CLIENT1|6=912.28|11=3|14=10977|17=2|37=2|38=10977|39=2|40=2|54=2|55=VIIA4|150=2|151=0|10=146|8=FIX.4.4|9=126|35=3|34=5|49=EXECUTOR|52=20240503-20:50:19.721|56=CLIENT1|45=0|58=The order 4 was reject because the exposition was exceeded.|10=092|8=FIX.4.4|9=126|35=3|34=6|49=EXECUTOR|52=20240503-20:50:20.723|56=CLIENT1|45=0|58=The order 5 was reject because the exposition was exceeded.|10=088|8=FIX.4.4|9=126|35=3|34=7|49=EXECUTOR|52=20240503-20:50:21.733|56=CLIENT1|45=0|58=The order 6 was reject because the exposition was exceeded.|10=092|8=FIX.4.4|9=136|35=8|34=8|49=EXECUTOR|52=20240503-20:50:22.748|56=CLIENT1|6=664.02|11=7|14=53226|17=3|37=3|38=53226|39=2|40=2|54=2|55=PETR4|150=2|151=0|10=156|8=FIX.4.4|9=136|35=8|34=9|49=EXECUTOR|52=20240503-20:50:23.750|56=CLIENT1|6=369.02|11=8|14=34834|17=4|37=4|38=34834|39=2|40=2|54=1|55=VALE3|150=2|151=0|10=143|8=FIX.4.4|9=137|35=8|34=10|49=EXECUTOR|52=20240503-20:50:24.744|56=CLIENT1|6=850.11|11=9|14=63473|17=5|37=5|38=63473|39=2|40=2|54=2|55=PETR4|150=2|151=0|10=209|8=FIX.4.4|9=134|35=8|34=11|49=EXECUTOR|52=20240503-20:50:25.743|56=CLIENT1|6=992.75|11=10|14=287|17=6|37=6|38=287|39=2|40=2|54=1|55=VALE3|150=2|151=0|10=041|8=FIX.4.4|9=138|35=8|34=12|49=EXECUTOR|52=20240503-20:50:26.750|56=CLIENT1|6=120.27|11=11|14=75876|17=7|37=7|38=75876|39=2|40=2|54=2|55=VALE3|150=2|151=0|10=253|8=FIX.4.4|9=138|35=8|34=13|49=EXECUTOR|52=20240503-20:50:27.743|56=CLIENT1|6=331.74|11=12|14=76764|17=8|37=8|38=76764|39=2|40=2|54=1|55=VALE3|150=2|151=0|10=003|8=FIX.4.4|9=138|35=8|34=14|49=EXECUTOR|52=20240503-20:50:28.755|56=CLIENT1|6=985.59|11=13|14=76475|17=9|37=9|38=76475|39=2|40=2|54=2|55=PETR4|150=2|151=0|10=048|8=FIX.4.4|9=140|35=8|34=15|49=EXECUTOR|52=20240503-20:50:29.727|56=CLIENT1|6=141.68|11=14|14=94202|17=10|37=10|38=94202|39=2|40=2|54=1|55=VALE3|150=2|151=0|10=062|8=FIX.4.4|9=128|35=3|34=16|49=EXECUTOR|52=20240503-20:50:30.723|56=CLIENT1|45=0|58=The order 15 was reject because the exposition was exceeded.|10=189|8=FIX.4.4|9=140|35=8|34=17|49=EXECUTOR|52=20240503-20:50:31.723|56=CLIENT1|6=178.21|11=16|14=72374|17=11|37=11|38=72374|39=2|40=2|54=2|55=VALE3|150=2|151=0|10=069|8=FIX.4.4|9=139|35=8|34=18|49=EXECUTOR|52=20240503-20:50:32.729|56=CLIENT1|6=12.88|11=17|14=58476|17=12|37=12|38=58476|39=2|40=2|54=2|55=PETR4|150=2|151=0|10=074|8=FIX.4.4|9=140|35=8|34=19|49=EXECUTOR|52=20240503-20:50:33.732|56=CLIENT1|6=117.43|11=18|14=96845|17=13|37=13|38=96845|39=2|40=2|54=2|55=VALE3|150=2|151=0|10=094|8=FIX.4.4|9=140|35=8|34=20|49=EXECUTOR|52=20240503-20:50:34.741|56=CLIENT1|6=771.15|11=19|14=68059|17=14|37=14|38=68059|39=2|40=2|54=2|55=VALE3|150=2|151=0|10=087|8=FIX.4.4|9=140|35=8|34=21|49=EXECUTOR|52=20240503-20:50:35.727|56=CLIENT1|6=698.55|11=20|14=62508|17=15|37=15|38=62508|39=2|40=2|54=1|55=PETR4|150=2|151=0|10=104|8=FIX.4.4|9=140|35=8|34=22|49=EXECUTOR|52=20240503-20:50:36.737|56=CLIENT1|6=768.65|11=21|14=86030|17=16|37=16|38=86030|39=2|40=2|54=2|55=PETR4|150=2|151=0|10=102|8=FIX.4.4|9=140|35=8|34=23|49=EXECUTOR|52=20240503-20:50:37.747|56=CLIENT1|6=372.95|11=22|14=57261|17=17|37=17|38=57261|39=2|40=2|54=1|55=PETR4|150=2|151=0|10=109|8=FIX.4.4|9=138|35=8|34=24|49=EXECUTOR|52=20240503-20:50:38.759|56=CLIENT1|6=267.96|11=23|14=4039|17=18|37=18|38=4039|39=2|40=2|54=2|55=VIIA4|150=2|151=0|10=005|8=FIX.4.4|9=138|35=8|34=25|49=EXECUTOR|52=20240503-20:50:39.734|56=CLIENT1|6=923.71|11=24|14=3154|17=19|37=19|38=3154|39=2|40=2|54=1|55=PETR4|150=2|151=0|10=006|8=FIX.4.4|9=128|35=3|34=26|49=EXECUTOR|52=20240503-20:50:40.738|56=CLIENT1|45=0|58=The order 25 was reject because the exposition was exceeded.|10=198|8=FIX.4.4|9=140|35=8|34=27|49=EXECUTOR|52=20240503-20:50:41.745|56=CLIENT1|6=339.72|11=26|14=34558|17=20|37=20|38=34558|39=2|40=2|54=2|55=VALE3|150=2|151=0|10=085|8=FIX.4.4|9=140|35=8|34=28|49=EXECUTOR|52=20240503-20:50:42.759|56=CLIENT1|6=968.88|11=27|14=89128|17=21|37=21|38=89128|39=2|40=2|54=2|55=VALE3|150=2|151=0|10=116|8=FIX.4.4|9=140|35=8|34=29|49=EXECUTOR|52=20240503-20:50:43.761|56=CLIENT1|6=369.82|11=28|14=51917|17=22|37=22|38=51917|39=2|40=2|54=2|55=VALE3|150=2|151=0|10=093|8=FIX.4.4|9=140|35=8|34=30|49=EXECUTOR|52=20240503-20:50:44.748|56=CLIENT1|6=545.91|11=29|14=16841|17=23|37=23|38=16841|39=2|40=2|54=2|55=PETR4|150=2|151=0|10=104|8=FIX.4.4|9=140|35=8|34=31|49=EXECUTOR|52=20240503-20:50:45.739|56=CLIENT1|6=415.99|11=30|14=80893|17=24|37=24|38=80893|39=2|40=2|54=1|55=PETR4|150=2|151=0|10=119|8=FIX.4.4|9=140|35=8|34=32|49=EXECUTOR|52=20240503-20:50:46.737|56=CLIENT1|6=590.51|11=31|14=37431|17=25|37=25|38=37431|39=2|40=2|54=1|55=VALE3|150=2|151=0|10=074|8=FIX.4.4|9=140|35=8|34=33|49=EXECUTOR|52=20240503-20:50:47.763|56=CLIENT1|6=375.35|11=32|14=68852|17=26|37=26|38=68852|39=2|40=2|54=2|55=PETR4|150=2|151=0|10=124|8=FIX.4.4|9=140|35=8|34=34|49=EXECUTOR|52=20240503-20:50:48.742|56=CLIENT1|6=641.86|11=33|14=11684|17=27|37=27|38=11684|39=2|40=2|54=2|55=VIIA4|150=2|151=0|10=092|8=FIX.4.4|9=139|35=8|34=35|49=EXECUTOR|52=20240503-20:50:49.725|56=CLIENT1|6=915.1|11=34|14=35937|17=28|37=28|38=35937|39=2|40=2|54=1|55=VALE3|150=2|151=0|10=060|8=FIX.4.4|9=138|35=8|34=36|49=EXECUTOR|52=20240503-20:50:50.730|56=CLIENT1|6=206.87|11=35|14=2045|17=29|37=29|38=2045|39=2|40=2|54=1|55=VIIA4|150=2|151=0|10=236|8=FIX.4.4|9=140|35=8|34=37|49=EXECUTOR|52=20240503-20:50:51.773|56=CLIENT1|6=369.67|11=36|14=51720|17=30|37=30|38=51720|39=2|40=2|54=2|55=PETR4|150=2|151=0|10=098|8=FIX.4.4|9=140|35=8|34=38|49=EXECUTOR|52=20240503-20:50:52.729|56=CLIENT1|6=549.25|11=37|14=28529|17=31|37=31|38=28529|39=2|40=2|54=2|55=PETR4|150=2|151=0|10=120|8=FIX.4.4|9=140|35=8|34=39|49=EXECUTOR|52=20240503-20:50:53.753|56=CLIENT1|6=968.76|11=38|14=18563|17=32|37=32|38=18563|39=2|40=2|54=1|55=VALE3|150=2|151=0|10=106|8=FIX.4.4|9=140|35=8|34=40|49=EXECUTOR|52=20240503-20:50:54.743|56=CLIENT1|6=341.94|11=39|14=25841|17=33|37=33|38=25841|39=2|40=2|54=2|55=VALE3|150=2|151=0|10=081|8=FIX.4.4|9=140|35=8|34=41|49=EXECUTOR|52=20240503-20:50:55.746|56=CLIENT1|6=216.63|11=40|14=12769|17=34|37=34|38=12769|39=2|40=2|54=2|55=VIIA4|150=2|151=0|10=089|8=FIX.4.4|9=140|35=8|34=42|49=EXECUTOR|52=20240503-20:50:56.732|56=CLIENT1|6=252.82|11=41|14=54415|17=35|37=35|38=54415|39=2|40=2|54=1|55=VALE3|150=2|151=0|10=075|8=FIX.4.4|9=138|35=8|34=43|49=EXECUTOR|52=20240503-20:50:57.733|56=CLIENT1|6=16.5|11=42|14=27149|17=36|37=36|38=27149|39=2|40=2|54=2|55=VALE3|150=2|151=0|10=250|8=FIX.4.4|9=140|35=8|34=44|49=EXECUTOR|52=20240503-20:50:58.739|56=CLIENT1|6=681.02|11=43|14=22451|17=37|37=37|38=22451|39=2|40=2|54=2|55=PETR4|150=2|151=0|10=101|8=FIX.4.4|9=140|35=8|34=45|49=EXECUTOR|52=20240503-20:50:59.733|56=CLIENT1|6=132.25|11=44|14=57690|17=38|37=38|38=57690|39=2|40=2|54=2|55=VALE3|150=2|151=0|10=102|8=FIX.4.4|9=140|35=8|34=46|49=EXECUTOR|52=20240503-20:51:00.736|56=CLIENT1|6=442.85|11=45|14=97622|17=39|37=39|38=97622|39=2|40=2|54=2|55=VALE3|150=2|151=0|10=104|8=FIX.4.4|9=140|35=8|34=47|49=EXECUTOR|52=20240503-20:51:01.753|56=CLIENT1|6=728.67|11=46|14=48114|17=40|37=40|38=48114|39=2|40=2|54=2|55=VALE3|150=2|151=0|10=081|8=FIX.4.4|9=128|35=3|34=48|49=EXECUTOR|52=20240503-20:51:02.743|56=CLIENT1|45=0|58=The order 47 was reject because the exposition was exceeded.|10=201|8=FIX.4.4|9=140|35=8|34=49|49=EXECUTOR|52=20240503-20:51:03.728|56=CLIENT1|6=886.64|11=48|14=75459|17=41|37=41|38=75459|39=2|40=2|54=2|55=VALE3|150=2|151=0|10=117|8=FIX.4.4|9=139|35=8|34=50|49=EXECUTOR|52=20240503-20:51:04.737|56=CLIENT1|6=579.7|11=49|14=64669|17=42|37=42|38=64669|39=2|40=2|54=1|55=PETR4|150=2|151=0|10=090|8=FIX.4.4|9=140|35=8|34=51|49=EXECUTOR|52=20240503-20:51:05.734|56=CLIENT1|6=194.08|11=50|14=55888|17=43|37=43|38=55888|39=2|40=2|54=2|55=PETR4|150=2|151=0|10=124|8=FIX.4.4|9=140|35=8|34=52|49=EXECUTOR|52=20240503-20:51:06.775|56=CLIENT1|6=121.04|11=51|14=85341|17=44|37=44|38=85341|39=2|40=2|54=1|55=VIIA4|150=2|151=0|10=075|8=FIX.4.4|9=140|35=8|34=53|49=EXECUTOR|52=20240503-20:51:07.754|56=CLIENT1|6=977.36|11=52|14=47012|17=45|37=45|38=47012|39=2|40=2|54=2|55=VALE3|150=2|151=0|10=086|8=FIX.4.4|9=140|35=8|34=54|49=EXECUTOR|52=20240503-20:51:08.756|56=CLIENT1|6=513.68|11=53|14=86175|17=46|37=46|38=86175|39=2|40=2|54=1|55=PETR4|150=2|151=0|10=129|8=FIX.4.4|9=138|35=8|34=55|49=EXECUTOR|52=20240503-20:51:09.755|56=CLIENT1|6=349.59|11=54|14=9344|17=47|37=47|38=9344|39=2|40=2|54=1|55=PETR4|150=2|151=0|10=037|8=FIX.4.4|9=140|35=8|34=56|49=EXECUTOR|52=20240503-20:51:10.742|56=CLIENT1|6=820.67|11=55|14=97300|17=48|37=48|38=97300|39=2|40=2|54=2|55=VIIA4|150=2|151=0|10=092|8=FIX.4.4|9=140|35=8|34=57|49=EXECUTOR|52=20240503-20:51:11.828|56=CLIENT1|6=959.22|11=56|14=68837|17=49|37=49|38=68837|39=2|40=2|54=1|55=VALE3|150=2|151=0|10=129|8=FIX.4.4|9=140|35=8|34=58|49=EXECUTOR|52=20240503-20:51:12.741|56=CLIENT1|6=817.46|11=57|14=47196|17=50|37=50|38=47196|39=2|40=2|54=2|55=VALE3|150=2|151=0|10=100|8=FIX.4.4|9=140|35=8|34=59|49=EXECUTOR|52=20240503-20:51:13.744|56=CLIENT1|6=137.97|11=58|14=84240|17=51|37=51|38=84240|39=2|40=2|54=1|55=VIIA4|150=2|151=0|10=092|8=FIX.4.4|9=140|35=8|34=60|49=EXECUTOR|52=20240503-20:51:14.750|56=CLIENT1|6=928.56|11=59|14=28459|17=52|37=52|38=28459|39=2|40=2|54=1|55=VALE3|150=2|151=0|10=106|8=FIX.4.4|9=140|35=8|34=61|49=EXECUTOR|52=20240503-20:51:15.737|56=CLIENT1|6=166.77|11=60|14=39223|17=53|37=53|38=39223|39=2|40=2|54=1|55=VALE3|150=2|151=0|10=086|8=FIX.4.4|9=140|35=8|34=62|49=EXECUTOR|52=20240503-20:51:16.736|56=CLIENT1|6=505.76|11=61|14=49150|17=54|37=54|38=49150|39=2|40=2|54=1|55=VIIA4|150=2|151=0|10=088|8=FIX.4.4|9=138|35=8|34=63|49=EXECUTOR|52=20240503-20:51:17.745|56=CLIENT1|6=7.96|11=62|14=30287|17=55|37=55|38=30287|39=2|40=2|54=2|55=PETR4|150=2|151=0|10=024|8=FIX.4.4|9=140|35=8|34=64|49=EXECUTOR|52=20240503-20:51:18.741|56=CLIENT1|6=191.26|11=63|14=23766|17=56|37=56|38=23766|39=2|40=2|54=2|55=VIIA4|150=2|151=0|10=101|8=FIX.4.4|9=128|35=3|34=65|49=EXECUTOR|52=20240503-20:51:19.747|56=CLIENT1|45=0|58=The order 64 was reject because the exposition was exceeded.|10=211|8=FIX.4.4|9=140|35=8|34=66|49=EXECUTOR|52=20240503-20:51:20.738|56=CLIENT1|6=457.14|11=65|14=70873|17=57|37=57|38=70873|39=2|40=2|54=1|55=VIIA4|150=2|151=0|10=109|8=FIX.4.4|9=128|35=3|34=67|49=EXECUTOR|52=20240503-20:51:21.737|56=CLIENT1|45=0|58=The order 66 was reject because the exposition was exceeded.|10=207|8=FIX.4.4|9=140|35=8|34=68|49=EXECUTOR|52=20240503-20:51:22.731|56=CLIENT1|6=588.31|11=67|14=33703|17=58|37=58|38=33703|39=2|40=2|54=1|55=VALE3|150=2|151=0|10=094|8=FIX.4.4|9=140|35=8|34=69|49=EXECUTOR|52=20240503-20:51:23.734|56=CLIENT1|6=689.02|11=68|14=44396|17=59|37=59|38=44396|39=2|40=2|54=2|55=VALE3|150=2|151=0|10=123|8=FIX.4.4|9=140|35=8|34=70|49=EXECUTOR|52=20240503-20:51:24.772|56=CLIENT1|6=708.73|11=69|14=55710|17=60|37=60|38=55710|39=2|40=2|54=1|55=PETR4|150=2|151=0|10=106|8=FIX.4.4|9=139|35=8|34=71|49=EXECUTOR|52=20240503-20:51:25.746|56=CLIENT1|6=352.3|11=70|14=26165|17=61|37=61|38=26165|39=2|40=2|54=2|55=PETR4|150=2|151=0|10=056|8=FIX.4.4|9=140|35=8|34=72|49=EXECUTOR|52=20240503-20:51:26.748|56=CLIENT1|6=671.79|11=71|14=35722|17=62|37=62|38=35722|39=2|40=2|54=2|55=VALE3|150=2|151=0|10=098|8=FIX.4.4|9=140|35=8|34=73|49=EXECUTOR|52=20240503-20:51:27.761|56=CLIENT1|6=852.59|11=72|14=80706|17=63|37=63|38=80706|39=2|40=2|54=2|55=VIIA4|150=2|151=0|10=103|8=FIX.4.4|9=140|35=8|34=74|49=EXECUTOR|52=20240503-20:51:28.748|56=CLIENT1|6=650.59|11=73|14=78553|17=64|37=64|38=78553|39=2|40=2|54=1|55=PETR4|150=2|151=0|10=140|8=FIX.4.4|9=140|35=8|34=75|49=EXECUTOR|52=20240503-20:51:29.752|56=CLIENT1|6=885.63|11=74|14=92912|17=65|37=65|38=92912|39=2|40=2|54=1|55=VALE3|150=2|151=0|10=115|8=FIX.4.4|9=138|35=8|34=76|49=EXECUTOR|52=20240503-20:51:30.754|56=CLIENT1|6=302.66|11=75|14=3373|17=66|37=66|38=3373|39=2|40=2|54=2|55=PETR4|150=2|151=0|10=018|8=FIX.4.4|9=138|35=8|34=77|49=EXECUTOR|52=20240503-20:51:31.740|56=CLIENT1|6=668.21|11=76|14=2247|17=67|37=67|38=2247|39=2|40=2|54=1|55=PETR4|150=2|151=0|10=021|8=FIX.4.4|9=140|35=8|34=78|49=EXECUTOR|52=20240503-20:51:32.744|56=CLIENT1|6=607.59|11=77|14=13233|17=68|37=68|38=13233|39=2|40=2|54=1|55=VALE3|150=2|151=0|10=097|8=FIX.4.4|9=140|35=8|34=79|49=EXECUTOR|52=20240503-20:51:33.750|56=CLIENT1|6=759.82|11=78|14=51659|17=69|37=69|38=51659|39=2|40=2|54=1|55=PETR4|150=2|151=0|10=151|8=FIX.4.4|9=128|35=3|34=80|49=EXECUTOR|52=20240503-20:51:34.756|56=CLIENT1|45=0|58=The order 79 was reject because the exposition was exceeded.|10=211|8=FIX.4.4|9=140|35=8|34=81|49=EXECUTOR|52=20240503-20:51:35.741|56=CLIENT1|6=864.58|11=80|14=86919|17=70|37=70|38=86919|39=2|40=2|54=2|55=PETR4|150=2|151=0|10=138|8=FIX.4.4|9=140|35=8|34=82|49=EXECUTOR|52=20240503-20:51:36.736|56=CLIENT1|6=140.86|11=81|14=69569|17=71|37=71|38=69569|39=2|40=2|54=1|55=PETR4|150=2|151=0|10=138|8=FIX.4.4|9=139|35=8|34=83|49=EXECUTOR|52=20240503-20:51:37.741|56=CLIENT1|6=699.5|11=82|14=64005|17=72|37=72|38=64005|39=2|40=2|54=1|55=VALE3|150=2|151=0|10=049|8=FIX.4.4|9=140|35=8|34=84|49=EXECUTOR|52=20240503-20:51:38.744|56=CLIENT1|6=109.75|11=83|14=90185|17=73|37=73|38=90185|39=2|40=2|54=1|55=PETR4|150=2|151=0|10=126|8=FIX.4.4|9=139|35=8|34=85|49=EXECUTOR|52=20240503-20:51:39.739|56=CLIENT1|6=47.05|11=84|14=81255|17=74|37=74|38=81255|39=2|40=2|54=2|55=VIIA4|150=2|151=0|10=068|8=FIX.4.4|9=138|35=8|34=86|49=EXECUTOR|52=20240503-20:51:40.747|56=CLIENT1|6=845.51|11=85|14=2515|17=75|37=75|38=2515|39=2|40=2|54=1|55=VIIA4|150=2|151=0|10=004|8=FIX.4.4|9=140|35=8|34=87|49=EXECUTOR|52=20240503-20:51:41.752|56=CLIENT1|6=805.88|11=86|14=34429|17=76|37=76|38=34429|39=2|40=2|54=1|55=VIIA4|150=2|151=0|10=118|8=FIX.4.4|9=140|35=8|34=88|49=EXECUTOR|52=20240503-20:51:42.760|56=CLIENT1|6=156.95|11=87|14=85367|17=77|37=77|38=85367|39=2|40=2|54=1|55=VALE3|150=2|151=0|10=131|8=FIX.4.4|9=140|35=8|34=89|49=EXECUTOR|52=20240503-20:51:43.752|56=CLIENT1|6=807.77|11=88|14=71064|17=78|37=78|38=71064|39=2|40=2|54=1|55=VALE3|150=2|151=0|10=118|8=FIX.4.4|9=140|35=8|34=90|49=EXECUTOR|52=20240503-20:51:44.746|56=CLIENT1|6=411.95|11=89|14=81892|17=79|37=79|38=81892|39=2|40=2|54=1|55=VIIA4|150=2|151=0|10=130|8=FIX.4.4|9=140|35=8|34=91|49=EXECUTOR|52=20240503-20:51:45.740|56=CLIENT1|6=867.29|11=90|14=50021|17=80|37=80|38=50021|39=2|40=2|54=2|55=PETR4|150=2|151=0|10=093|8=FIX.4.4|9=140|35=8|34=92|49=EXECUTOR|52=20240503-20:51:46.753|56=CLIENT1|6=296.82|11=91|14=42509|17=81|37=81|38=42509|39=2|40=2|54=2|55=VALE3|150=2|151=0|10=101|8=FIX.4.4|9=140|35=8|34=93|49=EXECUTOR|52=20240503-20:51:47.743|56=CLIENT1|6=755.36|11=92|14=67898|17=82|37=82|38=67898|39=2|40=2|54=1|55=VALE3|150=2|151=0|10=139|8=FIX.4.4|9=140|35=8|34=94|49=EXECUTOR|52=20240503-20:51:48.744|56=CLIENT1|6=443.97|11=93|14=63755|17=83|37=83|38=63755|39=2|40=2|54=1|55=VIIA4|150=2|151=0|10=124|8=FIX.4.4|9=140|35=8|34=95|49=EXECUTOR|52=20240503-20:51:49.750|56=CLIENT1|6=168.17|11=94|14=93515|17=84|37=84|38=93515|39=2|40=2|54=1|55=VALE3|150=2|151=0|10=114|8=FIX.4.4|9=128|35=3|34=96|49=EXECUTOR|52=20240503-20:51:50.754|56=CLIENT1|45=0|58=The order 95 was reject because the exposition was exceeded.|10=212|8=FIX.4.4|9=140|35=8|34=97|49=EXECUTOR|52=20240503-20:51:51.756|56=CLIENT1|6=261.02|11=96|14=67379|17=85|37=85|38=67379|39=2|40=2|54=2|55=PETR4|150=2|151=0|10=146|8=FIX.4.4|9=136|35=8|34=98|49=EXECUTOR|52=20240503-20:51:52.759|56=CLIENT1|6=341.73|11=97|14=420|17=86|37=86|38=420|39=2|40=2|54=1|55=PETR4|150=2|151=0|10=177|8=FIX.4.4|9=140|35=8|34=99|49=EXECUTOR|52=20240503-20:51:53.745|56=CLIENT1|6=134.29|11=98|14=23082|17=87|37=87|38=23082|39=2|40=2|54=1|55=PETR4|150=2|151=0|10=127|8=FIX.4.4|9=140|35=8|34=100|49=EXECUTOR|52=20240503-20:51:54.761|56=CLIENT1|6=44.14|11=99|14=18949|17=88|37=88|38=18949|39=2|40=2|54=2|55=VALE3|150=2|151=0|10=119|8=FIX.4.4|9=140|35=8|34=101|49=EXECUTOR|52=20240503-20:51:55.741|56=CLIENT1|6=550.95|11=100|14=8187|17=89|37=89|38=8187|39=2|40=2|54=1|55=PETR4|150=2|151=0|10=120|8=FIX.4.4|9=130|35=3|34=102|49=EXECUTOR|52=20240503-20:51:56.749|56=CLIENT1|45=0|58=The order 101 was reject because the exposition was exceeded.|10=031|8=FIX.4.4|9=142|35=8|34=103|49=EXECUTOR|52=20240503-20:51:57.750|56=CLIENT1|6=743.02|11=102|14=16046|17=90|37=90|38=16046|39=2|40=2|54=2|55=VALE3|150=2|151=0|10=167|8=FIX.4.4|9=142|35=8|34=104|49=EXECUTOR|52=20240503-20:51:58.729|56=CLIENT1|6=723.59|11=103|14=95855|17=91|37=91|38=95855|39=2|40=2|54=2|55=VALE3|150=2|151=0|10=218|8=FIX.4.4|9=142|35=8|34=105|49=EXECUTOR|52=20240503-20:51:59.727|56=CLIENT1|6=170.23|11=104|14=75473|17=92|37=92|38=75473|39=2|40=2|54=1|55=VALE3|150=2|151=0|10=195|8=FIX.4.4|9=142|35=8|34=106|49=EXECUTOR|52=20240503-20:52:00.733|56=CLIENT1|6=670.42|11=105|14=13101|17=93|37=93|38=13101|39=2|40=2|54=2|55=PETR4|150=2|151=0|10=170|8=FIX.4.4|9=142|35=8|34=107|49=EXECUTOR|52=20240503-20:52:01.730|56=CLIENT1|6=191.58|11=106|14=59198|17=94|37=94|38=59198|39=2|40=2|54=2|55=VALE3|150=2|151=0|10=209|8=FIX.4.4|9=142|35=8|34=108|49=EXECUTOR|52=20240503-20:52:03.064|56=CLIENT1|6=885.31|11=107|14=21325|17=95|37=95|38=21325|39=2|40=2|54=1|55=VALE3|150=2|151=0|10=177|