8=FIX.4.4|9=70|35=A|34=1|49=EXECUTOR|52=20240503-01:34:38.226|56=CLIENT1|98=0|108=30|10=089|8=FIX.4.4|9=126|35=3|34=2|49=EXECUTOR|52=20240503-01:34:39.113|56=CLIENT1|45=0|58=The order 1 was reject because the exposition was exceeded.|10=084|8=FIX.4.4|9=135|35=8|34=3|49=EXECUTOR|52=20240503-01:34:40.099|56=CLIENT1|6=489.1|11=2|14=65593|17=1|37=1|38=65593|39=2|40=2|54=2|55=PETR4|150=2|151=0|10=117|8=FIX.4.4|9=136|35=8|34=4|49=EXECUTOR|52=20240503-01:34:41.109|56=CLIENT1|6=306.52|11=3|14=93355|17=2|37=2|38=93355|39=2|40=2|54=2|55=VALE3|150=2|151=0|10=131|8=FIX.4.4|9=136|35=8|34=5|49=EXECUTOR|52=20240503-01:34:42.109|56=CLIENT1|6=611.04|11=4|14=95119|17=3|37=3|38=95119|39=2|40=2|54=2|55=PETR4|150=2|151=0|10=152|8=FIX.4.4|9=136|35=8|34=6|49=EXECUTOR|52=20240503-01:34:43.114|56=CLIENT1|6=986.74|11=5|14=39309|17=4|37=4|38=39309|39=2|40=2|54=2|55=PETR4|150=2|151=0|10=173|8=FIX.4.4|9=126|35=3|34=7|49=EXECUTOR|52=20240503-01:34:44.097|56=CLIENT1|45=0|58=The order 6 was reject because the exposition was exceeded.|10=101|8=FIX.4.4|9=136|35=8|34=8|49=EXECUTOR|52=20240503-01:34:45.098|56=CLIENT1|6=709.19|11=7|14=31913|17=5|37=5|38=31913|39=2|40=2|54=1|55=VALE3|150=2|151=0|10=149|8=FIX.4.4|9=136|35=8|34=9|49=EXECUTOR|52=20240503-01:34:46.096|56=CLIENT1|6=874.01|11=8|14=78539|17=6|37=6|38=78539|39=2|40=2|54=2|55=VIIA4|150=2|151=0|10=179|8=FIX.4.4|9=137|35=8|34=10|49=EXECUTOR|52=20240503-01:34:47.103|56=CLIENT1|6=502.33|11=9|14=94919|17=7|37=7|38=94919|39=2|40=2|54=2|55=VIIA4|150=2|151=0|10=206|8=FIX.4.4|9=128|35=3|34=11|49=EXECUTOR|52=20240503-01:34:48.097|56=CLIENT1|45=0|58=The order 10 was reject because the exposition was exceeded.|10=193|8=FIX.4.4|9=137|35=8|34=12|49=EXECUTOR|52=20240503-01:34:49.108|56=CLIENT1|6=375.7|11=11|14=11769|17=8|37=8|38=11769|39=2|40=2|54=2|55=PETR4|150=2|151=0|10=221|8=FIX.4.4|9=138|35=8|34=13|49=EXECUTOR|52=20240503-01:34:50.102|56=CLIENT1|6=539.86|11=12|14=98820|17=9|37=9|38=98820|39=2|40=2|54=1|55=VIIA4|150=2|151=0|10=000|8=FIX.4.4|9=140|35=8|34=14|49=EXECUTOR|52=20240503-01:34:51.098|56=CLIENT1|6=305.23|11=13|14=23425|17=10|37=10|38=23425|39=2|40=2|54=2|55=PETR4|150=2|151=0|10=069|8=FIX.4.4|9=140|35=8|34=15|49=EXECUTOR|52=20240503-01:34:52.096|56=CLIENT1|6=465.77|11=14|14=11399|17=11|37=11|38=11399|39=2|40=2|54=1|55=VALE3|150=2|151=0|10=081|8=FIX.4.4|9=128|35=3|34=16|49=EXECUTOR|52=20240503-01:34:53.109|56=CLIENT1|45=0|58=The order 15 was reject because the exposition was exceeded.|10=193|8=FIX.4.4|9=140|35=8|34=17|49=EXECUTOR|52=20240503-01:34:54.116|56=CLIENT1|6=561.78|11=16|14=54409|17=12|37=12|38=54409|39=2|40=2|54=2|55=VALE3|150=2|151=0|10=079|8=FIX.4.4|9=139|35=8|34=18|49=EXECUTOR|52=20240503-01:34:55.105|56=CLIENT1|6=791.9|11=17|14=31389|17=13|37=13|38=31389|39=2|40=2|54=2|55=VALE3|150=2|151=0|10=045|8=FIX.4.4|9=140|35=8|34=19|49=EXECUTOR|52=20240503-01:34:56.095|56=CLIENT1|6=386.92|11=18|14=57642|17=14|37=14|38=57642|39=2|40=2|54=2|55=VALE3|150=2|151=0|10=100|8=FIX.4.4|9=140|35=8|34=20|49=EXECUTOR|52=20240503-01:34:57.100|56=CLIENT1|6=959.59|11=19|14=53652|17=15|37=15|38=53652|39=2|40=2|54=1|55=VALE3|150=2|151=0|10=085|8=FIX.4.4|9=139|35=8|34=21|49=EXECUTOR|52=20240503-01:34:58.101|56=CLIENT1|6=537.9|11=20|14=63139|17=16|37=16|38=63139|39=2|40=2|54=2|55=PETR4|150=2|151=0|10=052|8=FIX.4.4|9=140|35=8|34=22|49=EXECUTOR|52=20240503-01:34:59.102|56=CLIENT1|6=723.23|11=21|14=84955|17=17|37=17|38=84955|39=2|40=2|54=1|55=VIIA4|150=2|151=0|10=090|8=FIX.4.4|9=140|35=8|34=23|49=EXECUTOR|52=20240503-01:35:00.108|56=CLIENT1|6=754.94|11=22|14=63608|17=18|37=18|38=63608|39=2|40=2|54=2|55=VIIA4|150=2|151=0|10=084|8=FIX.4.4|9=140|35=8|34=24|49=EXECUTOR|52=20240503-01:35:01.097|56=CLIENT1|6=811.65|11=23|14=91872|17=19|37=19|38=91872|39=2|40=2|54=1|55=PETR4|150=2|151=0|10=113|8=FIX.4.4|9=140|35=8|34=25|49=EXECUTOR|52=20240503-01:35:02.099|56=CLIENT1|6=277.76|11=24|14=98238|17=20|37=20|38=98238|39=2|40=2|54=2|55=VIIA4|150=2|151=0|10=099|8=FIX.4.4|9=140|35=8|34=26|49=EXECUTOR|52=20240503-01:35:03.108|56=CLIENT1|6=603.59|11=25|14=35389|17=21|37=21|38=35389|39=2|40=2|54=1|55=PETR4|150=2|151=0|10=102|8=FIX.4.4|9=140|35=8|34=27|49=EXECUTOR|52=20240503-01:35:04.122|56=CLIENT1|6=653.01|11=26|14=83933|17=22|37=22|38=83933|39=2|40=2|54=2|55=VIIA4|150=2|151=0|10=074|8=FIX.4.4|9=140|35=8|34=28|49=EXECUTOR|52=20240503-01:35:05.107|56=CLIENT1|6=776.34|11=27|14=75085|17=23|37=23|38=75085|39=2|40=2|54=2|55=PETR4|150=2|151=0|10=110|8=FIX.4.4|9=128|35=3|34=29|49=EXECUTOR|52=20240503-01:35:06.106|56=CLIENT1|45=0|58=The order 28 was reject because the exposition was exceeded.|10=197|8=FIX.4.4|9=128|35=3|34=30|49=EXECUTOR|52=20240503-01:35:07.106|56=CLIENT1|45=0|58=The order 29 was reject because the exposition was exceeded.|10=191|8=FIX.4.4|9=140|35=8|34=31|49=EXECUTOR|52=20240503-01:35:08.107|56=CLIENT1|6=888.43|11=30|14=60852|17=24|37=24|38=60852|39=2|40=2|54=2|55=PETR4|150=2|151=0|10=099|8=FIX.4.4|9=140|35=8|34=32|49=EXECUTOR|52=20240503-01:35:09.104|56=CLIENT1|6=459.82|11=31|14=19012|17=25|37=25|38=19012|39=2|40=2|54=2|55=VALE3|150=2|151=0|10=062|8=FIX.4.4|9=140|35=8|34=33|49=EXECUTOR|52=20240503-01:35:10.100|56=CLIENT1|6=213.66|11=32|14=60504|17=26|37=26|38=60504|39=2|40=2|54=2|55=VALE3|150=2|151=0|10=048|8=FIX.4.4|9=140|35=8|34=34|49=EXECUTOR|52=20240503-01:35:11.099|56=CLIENT1|6=937.38|11=33|14=10964|17=27|37=27|38=10964|39=2|40=2|54=1|55=VIIA4|150=2|151=0|10=093|8=FIX.4.4|9=140|35=8|34=35|49=EXECUTOR|52=20240503-01:35:12.096|56=CLIENT1|6=281.75|11=34|14=91774|17=28|37=28|38=91774|39=2|40=2|54=1|55=PETR4|150=2|151=0|10=122|8=FIX.4.4|9=140|35=8|34=36|49=EXECUTOR|52=20240503-01:35:13.103|56=CLIENT1|6=603.02|11=35|14=28593|17=29|37=29|38=28593|39=2|40=2|54=2|55=VALE3|150=2|151=0|10=083|8=FIX.4.4|9=140|35=8|34=37|49=EXECUTOR|52=20240503-01:35:14.095|56=CLIENT1|6=278.59|11=36|14=63906|17=30|37=30|38=63906|39=2|40=2|54=2|55=PETR4|150=2|151=0|10=114|8=FIX.4.4|9=140|35=8|34=38|49=EXECUTOR|52=20240503-01:35:15.100|56=CLIENT1|6=923.54|11=37|14=10437|17=31|37=31|38=10437|39=2|40=2|54=2|55=VALE3|150=2|151=0|10=060|8=FIX.4.4|9=138|35=8|34=39|49=EXECUTOR|52=20240503-01:35:16.100|56=CLIENT1|6=621.11|11=38|14=3107|17=32|37=32|38=3107|39=2|40=2|54=2|55=VALE3|150=2|151=0|10=212|8=FIX.4.4|9=140|35=8|34=40|49=EXECUTOR|52=20240503-01:35:17.105|56=CLIENT1|6=469.74|11=39|14=26296|17=33|37=33|38=26296|39=2|40=2|54=1|55=VIIA4|150=2|151=0|10=094|8=FIX.4.4|9=139|35=8|34=41|49=EXECUTOR|52=20240503-01:35:18.103|56=CLIENT1|6=554.2|11=40|14=54671|17=34|37=34|38=54671|39=2|40=2|54=2|55=VIIA4|150=2|151=0|10=031|8=FIX.4.4|9=139|35=8|34=42|49=EXECUTOR|52=20240503-01:35:19.104|56=CLIENT1|6=584.6|11=41|14=15030|17=35|37=35|38=15030|39=2|40=2|54=1|55=PETR4|150=2|151=0|10=033|8=FIX.4.4|9=140|35=8|34=43|49=EXECUTOR|52=20240503-01:35:20.103|56=CLIENT1|6=696.22|11=42|14=77003|17=36|37=36|38=77003|39=2|40=2|54=2|55=VALE3|150=2|151=0|10=067|8=FIX.4.4|9=140|35=8|34=44|49=EXECUTOR|52=20240503-01:35:21.103|56=CLIENT1|6=544.33|11=43|14=41473|17=37|37=37|38=41473|39=2|40=2|54=2|55=VIIA4|150=2|151=0|10=072|8=FIX.4.4|9=140|35=8|34=45|49=EXECUTOR|52=20240503-01:35:22.098|56=CLIENT1|6=654.03|11=44|14=72768|17=38|37=38|38=72768|39=2|40=2|54=1|55=VIIA4|150=2|151=0|10=110|8=FIX.4.4|9=140|35=8|34=46|49=EXECUTOR|52=20240503-01:35:23.095|56=CLIENT1|6=123.05|11=45|14=28706|17=39|37=39|38=28706|39=2|40=2|54=2|55=PETR4|150=2|151=0|10=110|8=FIX.4.4|9=137|35=8|34=47|49=EXECUTOR|52=20240503-01:35:24.106|56=CLIENT1|6=733.7|11=46|14=4345|17=40|37=40|38=4345|39=2|40=2|54=1|55=VALE3|150=2|151=0|10=182|8=FIX.4.4|9=140|35=8|34=48|49=EXECUTOR|52=20240503-01:35:25.105|56=CLIENT1|6=833.81|11=47|14=30037|17=41|37=41|38=30037|39=2|40=2|54=1|55=VIIA4|150=2|151=0|10=067|8=FIX.4.4|9=140|35=8|34=49|49=EXECUTOR|52=20240503-01:35:26.106|56=CLIENT1|6=735.44|11=48|14=36074|17=42|37=42|38=36074|39=2|40=2|54=2|55=PETR4|150=2|151=0|10=106|8=FIX.4.4|9=140|35=8|34=50|49=EXECUTOR|52=20240503-01:35:27.104|56=CLIENT1|6=708.48|11=49|14=95985|17=43|37=43|38=95985|39=2|40=2|54=1|55=PETR4|150=2|151=0|10=135|8=FIX.4.4|9=140|35=8|34=51|49=EXECUTOR|52=20240503-01:35:28.105|56=CLIENT1|6=686.24|11=50|14=21032|17=44|37=44|38=21032|39=2|40=2|54=1|55=VIIA4|150=2|151=0|10=057|8=FIX.4.4|9=140|35=8|34=52|49=EXECUTOR|52=20240503-01:35:29.103|56=CLIENT1|6=834.89|11=51|14=58051|17=45|37=45|38=58051|39=2|40=2|54=1|55=VIIA4|150=2|151=0|10=088|8=FIX.4.4|9=140|35=8|34=53|49=EXECUTOR|52=20240503-01:35:30.101|56=CLIENT1|6=504.57|11=52|14=27980|17=46|37=46|38=27980|39=2|40=2|54=2|55=PETR4|150=2|151=0|10=104|8=FIX.4.4|9=140|35=8|34=54|49=EXECUTOR|52=20240503-01:35:31.101|56=CLIENT1|6=998.41|11=53|14=99730|17=47|37=47|38=99730|39=2|40=2|54=1|55=PETR4|150=2|151=0|10=122|8=FIX.4.4|9=139|35=8|34=55|49=EXECUTOR|52=20240503-01:35:32.100|56=CLIENT1|6=25.09|11=54|14=94948|17=48|37=48|38=94948|39=2|40=2|54=1|55=VALE3|150=2|151=0|10=063|8=FIX.4.4|9=140|35=8|34=56|49=EXECUTOR|52=20240503-01:35:33.096|56=CLIENT1|6=711.68|11=55|14=66649|17=49|37=49|38=66649|39=2|40=2|54=1|55=VALE3|150=2|151=0|10=123|8=FIX.4.4|9=140|35=8|34=57|49=EXECUTOR|52=20240503-01:35:34.099|56=CLIENT1|6=789.27|11=56|14=20893|17=50|37=50|38=20893|39=2|40=2|54=2|55=VIIA4|150=2|151=0|10=108|8=FIX.4.4|9=140|35=8|34=58|49=EXECUTOR|52=20240503-01:35:35.110|56=CLIENT1|6=852.48|11=57|14=26706|17=51|37=51|38=26706|39=2|40=2|54=2|55=VIIA4|150=2|151=0|10=089|8=FIX.4.4|9=140|35=8|34=59|49=EXECUTOR|52=20240503-01:35:36.109|56=CLIENT1|6=279.79|11=58|14=90683|17=52|37=52|38=90683|39=2|40=2|54=1|55=VIIA4|150=2|151=0|10=118|8=FIX.4.4|9=140|35=8|34=60|49=EXECUTOR|52=20240503-01:35:37.110|56=CLIENT1|6=120.55|11=59|14=84673|17=53|37=53|38=84673|39=2|40=2|54=2|55=VALE3|150=2|151=0|10=088|8=FIX.4.4|9=140|35=8|34=61|49=EXECUTOR|52=20240503-01:35:38.108|56=CLIENT1|6=552.57|11=60|14=48734|17=54|37=54|38=48734|39=2|40=2|54=2|55=VIIA4|150=2|151=0|10=100|8=FIX.4.4|9=140|35=8|34=62|49=EXECUTOR|52=20240503-01:35:39.108|56=CLIENT1|6=212.11|11=61|14=49109|17=55|37=55|38=49109|39=2|40=2|54=2|55=PETR4|150=2|151=0|10=100|8=FIX.4.4|9=136|35=8|34=63|49=EXECUTOR|52=20240503-01:35:40.110|56=CLIENT1|6=143.82|11=62|14=561|17=56|37=56|38=561|39=2|40=2|54=1|55=VIIA4|150=2|151=0|10=128|8=FIX.4.4|9=137|35=8|34=64|49=EXECUTOR|52=20240503-01:35:41.113|56=CLIENT1|6=382.6|11=63|14=3308|17=57|37=57|38=3308|39=2|40=2|54=1|55=VALE3|150=2|151=0|10=188|8=FIX.4.4|9=140|35=8|34=65|49=EXECUTOR|52=20240503-01:35:42.102|56=CLIENT1|6=494.75|11=64|14=54021|17=58|37=58|38=54021|39=2|40=2|54=2|55=PETR4|150=2|151=0|10=100|8=FIX.4.4|9=140|35=8|34=66|49=EXECUTOR|52=20240503-01:35:43.107|56=CLIENT1|6=937.95|11=65|14=43733|17=59|37=59|38=43733|39=2|40=2|54=1|55=VIIA4|150=2|151=0|10=111|8=FIX.4.4|9=140|35=8|34=67|49=EXECUTOR|52=20240503-01:35:44.106|56=CLIENT1|6=442.68|11=66|14=20381|17=60|37=60|38=20381|39=2|40=2|54=2|55=VIIA4|150=2|151=0|10=077|8=FIX.4.4|9=140|35=8|34=68|49=EXECUTOR|52=20240503-01:35:45.102|56=CLIENT1|6=106.07|11=67|14=78803|17=61|37=61|38=78803|39=2|40=2|54=2|55=VIIA4|150=2|151=0|10=092|8=FIX.4.4|9=139|35=8|34=69|49=EXECUTOR|52=20240503-01:35:46.105|56=CLIENT1|6=999.9|11=68|14=95370|17=62|37=62|38=95370|39=2|40=2|54=2|55=PETR4|150=2|151=0|10=096|8=FIX.4.4|9=140|35=8|34=70|49=EXECUTOR|52=20240503-01:35:47.095|56=CLIENT1|6=270.96|11=69|14=63779|17=63|37=63|38=63779|39=2|40=2|54=2|55=VALE3|150=2|151=0|10=124|8=FIX.4.4|9=140|35=8|34=71|49=EXECUTOR|52=20240503-01:35:48.095|56=CLIENT1|6=451.87|11=70|14=95868|17=64|37=64|38=95868|39=2|40=2|54=2|55=VALE3|150=2|151=0|10=129|8=FIX.4.4|9=140|35=8|34=72|49=EXECUTOR|52=20240503-01:35:49.097|56=CLIENT1|6=894.47|11=71|14=46691|17=65|37=65|38=46691|39=2|40=2|54=1|55=PETR4|150=2|151=0|10=142|8=FIX.4.4|9=140|35=8|34=73|49=EXECUTOR|52=20240503-01:35:50.094|56=CLIENT1|6=412.53|11=72|14=80612|17=66|37=66|38=80612|39=2|40=2|54=2|55=PETR4|150=2|151=0|10=101|8=FIX.4.4|9=140|35=8|34=74|49=EXECUTOR|52=20240503-01:35:51.095|56=CLIENT1|6=389.05|11=73|14=50557|17=67|37=67|38=50557|39=2|40=2|54=2|55=VALE3|150=2|151=0|10=107|8=FIX.4.4|9=140|35=8|34=75|49=EXECUTOR|52=20240503-01:35:52.109|56=CLIENT1|6=597.26|11=74|14=36710|17=68|37=68|38=36710|39=2|40=2|54=2|55=PETR4|150=2|151=0|10=122|8=FIX.4.4|9=138|35=8|34=76|49=EXECUTOR|52=20240503-01:35:53.122|56=CLIENT1|6=819.01|11=75|14=6515|17=69|37=69|38=6515|39=2|40=2|54=1|55=PETR4|150=2|151=0|10=022|8=FIX.4.4|9=140|35=8|34=77|49=EXECUTOR|52=20240503-01:35:54.105|56=CLIENT1|6=220.19|11=76|14=61607|17=70|37=70|38=61607|39=2|40=2|54=1|55=VIIA4|150=2|151=0|10=082|8=FIX.4.4|9=135|35=8|34=78|49=EXECUTOR|52=20240503-01:35:55.103|56=CLIENT1|6=275.6|11=77|14=968|17=71|37=71|38=968|39=2|40=2|54=2|55=PETR4|150=2|151=0|10=136|8=FIX.4.4|9=140|35=8|34=79|49=EXECUTOR|52=20240503-01:35:56.105|56=CLIENT1|6=816.64|11=78|14=53882|17=72|37=72|38=53882|39=2|40=2|54=2|55=VIIA4|150=2|151=0|10=116|8=FIX.4.4|9=140|35=8|34=80|49=EXECUTOR|52=20240503-01:35:57.098|56=CLIENT1|6=307.47|11=79|14=19299|17=73|37=73|38=19299|39=2|40=2|54=2|55=PETR4|150=2|151=0|10=145|8=FIX.4.4|9=140|35=8|34=81|49=EXECUTOR|52=20240503-01:35:58.104|56=CLIENT1|6=366.41|11=80|14=44604|17=74|37=74|38=44604|39=2|40=2|54=2|55=VIIA4|150=2|151=0|10=086|8=FIX.4.4|9=139|35=8|34=82|49=EXECUTOR|52=20240503-01:35:59.104|56=CLIENT1|6=866.7|11=81|14=27385|17=75|37=75|38=27385|39=2|40=2|54=1|55=VALE3|150=2|151=0|10=069|8=FIX.4.4|9=138|35=8|34=83|49=EXECUTOR|52=20240503-01:36:00.102|56=CLIENT1|6=171.68|11=82|14=2782|17=76|37=76|38=2782|39=2|40=2|54=2|55=VALE3|150=2|151=0|10=250|8=FIX.4.4|9=140|35=8|34=84|49=EXECUTOR|52=20240503-01:36:01.103|56=CLIENT1|6=658.65|11=83|14=73357|17=77|37=77|38=73357|39=2|40=2|54=1|55=PETR4|150=2|151=0|10=127|8=FIX.4.4|9=140|35=8|34=85|49=EXECUTOR|52=20240503-01:36:02.101|56=CLIENT1|6=874.57|11=84|14=20111|17=78|37=78|38=20111|39=2|40=2|54=2|55=PETR4|150=2|151=0|10=092|8=FIX.4.4|9=140|35=8|34=86|49=EXECUTOR|52=20240503-01:36:03.098|56=CLIENT1|6=485.15|11=85|14=19144|17=79|37=79|38=19144|39=2|40=2|54=1|55=VALE3|150=2|151=0|10=111|8=FIX.4.4|9=140|35=8|34=87|49=EXECUTOR|52=20240503-01:36:04.097|56=CLIENT1|6=102.06|11=86|14=12523|17=80|37=80|38=12523|39=2|40=2|54=1|55=PETR4|150=2|151=0|10=091|8=FIX.4.4|9=140|35=8|34=88|49=EXECUTOR|52=20240503-01:36:05.108|56=CLIENT1|6=337.42|11=87|14=64919|17=81|37=81|38=64919|39=2|40=2|54=2|55=VALE3|150=2|151=0|10=112|8=FIX.4.4|9=140|35=8|34=89|49=EXECUTOR|52=20240503-01:36:06.109|56=CLIENT1|6=204.88|11=88|14=85442|17=82|37=82|38=85442|39=2|40=2|54=1|55=PETR4|150=2|151=0|10=128|8=FIX.4.4|9=140|35=8|34=90|49=EXECUTOR|52=20240503-01:36:07.112|56=CLIENT1|6=363.36|11=89|14=94977|17=83|37=83|38=94977|39=2|40=2|54=2|55=VALE3|150=2|151=0|10=124|8=FIX.4.4|9=140|35=8|34=91|49=EXECUTOR|52=20240503-01:36:08.097|56=CLIENT1|6=224.87|11=90|14=19546|17=84|37=84|38=19546|39=2|40=2|54=1|55=VALE3|150=2|151=0|10=111|8=FIX.4.4|9=137|35=8|34=92|49=EXECUTOR|52=20240503-01:36:09.100|56=CLIENT1|6=876|11=91|14=16713|17=85|37=85|38=16713|39=2|40=2|54=2|55=VALE3|150=2|151=0|10=206|8=FIX.4.4|9=140|35=8|34=93|49=EXECUTOR|52=20240503-01:36:10.102|56=CLIENT1|6=432.85|11=92|14=33632|17=86|37=86|38=33632|39=2|40=2|54=1|55=VALE3|150=2|151=0|10=082|8=FIX.4.4|9=138|35=8|34=94|49=EXECUTOR|52=20240503-01:36:11.100|56=CLIENT1|6=528.17|11=93|14=8943|17=87|37=87|38=8943|39=2|40=2|54=1|55=VALE3|150=2|151=0|10=011|8=FIX.4.4|9=140|35=8|34=95|49=EXECUTOR|52=20240503-01:36:12.104|56=CLIENT1|6=540.41|11=94|14=79888|17=88|37=88|38=79888|39=2|40=2|54=2|55=VALE3|150=2|151=0|10=133|8=FIX.4.4|9=140|35=8|34=96|49=EXECUTOR|52=20240503-01:36:13.109|56=CLIENT1|6=743.85|11=95|14=98581|17=89|37=89|38=98581|39=2|40=2|54=2|55=PETR4|150=2|151=0|10=158|8=FIX.4.4|9=140|35=8|34=97|49=EXECUTOR|52=20240503-01:36:14.109|56=CLIENT1|6=851.64|11=96|14=67313|17=90|37=90|38=67313|39=2|40=2|54=1|55=PETR4|150=2|151=0|10=119|8=FIX.4.4|9=140|35=8|34=98|49=EXECUTOR|52=20240503-01:36:15.123|56=CLIENT1|6=844.46|11=97|14=24030|17=91|37=91|38=24030|39=2|40=2|54=2|55=PETR4|150=2|151=0|10=101|8=FIX.4.4|9=140|35=8|34=99|49=EXECUTOR|52=20240503-01:36:16.104|56=CLIENT1|6=831.34|11=98|14=18026|17=92|37=92|38=18026|39=2|40=2|54=1|55=VIIA4|150=2|151=0|10=095|8=FIX.4.4|9=140|35=8|34=100|49=EXECUTOR|52=20240503-01:36:17.106|56=CLIENT1|6=949.3|11=99|14=77297|17=93|37=93|38=77297|39=2|40=2|54=2|55=PETR4|150=2|151=0|10=139|8=FIX.4.4|9=142|35=8|34=101|49=EXECUTOR|52=20240503-01:36:18.096|56=CLIENT1|6=579.85|11=100|14=99753|17=94|37=94|38=99753|39=2|40=2|54=2|55=VIIA4|150=2|151=0|10=225|8=FIX.4.4|9=142|35=8|34=102|49=EXECUTOR|52=20240503-01:36:19.108|56=CLIENT1|6=112.91|11=101|14=10353|17=95|37=95|38=10353|39=2|40=2|54=1|55=VALE3|150=2|151=0|10=159|8=FIX.4.4|9=142|35=8|34=103|49=EXECUTOR|52=20240503-01:36:20.123|56=CLIENT1|6=498.92|11=102|14=45763|17=96|37=96|38=45763|39=2|40=2|54=1|55=PETR4|150=2|151=0|10=216|8=FIX.4.4|9=142|35=8|34=104|49=EXECUTOR|52=20240503-01:36:21.120|56=CLIENT1|6=621.01|11=103|14=61798|17=97|37=97|38=61798|39=2|40=2|54=2|55=VIIA4|150=2|151=0|10=191|8=FIX.4.4|9=142|35=8|34=105|49=EXECUTOR|52=20240503-01:36:22.104|56=CLIENT1|6=709.18|11=104|14=92239|17=98|37=98|38=92239|39=2|40=2|54=1|55=PETR4|150=2|151=0|10=218|8=FIX.4.4|9=141|35=8|34=106|49=EXECUTOR|52=20240503-01:36:23.096|56=CLIENT1|6=93.81|11=105|14=23257|17=99|37=99|38=23257|39=2|40=2|54=1|55=PETR4|150=2|151=0|10=168|8=FIX.4.4|9=144|35=8|34=107|49=EXECUTOR|52=20240503-01:36:24.100|56=CLIENT1|6=729.22|11=106|14=87262|17=100|37=100|38=87262|39=2|40=2|54=1|55=VIIA4|150=2|151=0|10=009|8=FIX.4.4|9=143|35=8|34=108|49=EXECUTOR|52=20240503-01:36:25.101|56=CLIENT1|6=13.38|11=107|14=26200|17=101|37=101|38=26200|39=2|40=2|54=2|55=VIIA4|150=2|151=0|10=186|8=FIX.4.4|9=144|35=8|34=109|49=EXECUTOR|52=20240503-01:36:26.100|56=CLIENT1|6=534.37|11=108|14=94240|17=102|37=102|38=94240|39=2|40=2|54=1|55=PETR4|150=2|151=0|10=025|8=FIX.4.4|9=143|35=8|34=110|49=EXECUTOR|52=20240503-01:36:27.101|56=CLIENT1|6=502.9|11=109|14=85612|17=103|37=103|38=85612|39=2|40=2|54=2|55=PETR4|150=2|151=0|10=230|8=FIX.4.4|9=142|35=8|34=111|49=EXECUTOR|52=20240503-01:36:28.103|56=CLIENT1|6=185.51|11=110|14=8298|17=104|37=104|38=8298|39=2|40=2|54=2|55=VALE3|150=2|151=0|10=173|8=FIX.4.4|9=143|35=8|34=112|49=EXECUTOR|52=20240503-01:36:29.103|56=CLIENT1|6=23.34|11=111|14=31462|17=105|37=105|38=31462|39=2|40=2|54=2|55=VALE3|150=2|151=0|10=197|8=FIX.4.4|9=144|35=8|34=113|49=EXECUTOR|52=20240503-01:36:30.109|56=CLIENT1|6=236.94|11=112|14=12169|17=106|37=106|38=12169|39=2|40=2|54=2|55=VIIA4|150=2|151=0|10=012|8=FIX.4.4|9=144|35=8|34=114|49=EXECUTOR|52=20240503-01:36:31.121|56=CLIENT1|6=548.06|11=113|14=66003|17=107|37=107|38=66003|39=2|40=2|54=1|55=PETR4|150=2|151=0|10=019|8=FIX.4.4|9=141|35=8|34=115|49=EXECUTOR|52=20240503-01:36:32.102|56=CLIENT1|6=586|11=114|14=70833|17=108|37=108|38=70833|39=2|40=2|54=1|55=VIIA4|150=2|151=0|10=124|8=FIX.4.4|9=144|35=8|34=116|49=EXECUTOR|52=20240503-01:36:33.099|56=CLIENT1|6=606.38|11=115|14=49213|17=109|37=109|38=49213|39=2|40=2|54=2|55=VIIA4|150=2|151=0|10=034|8=FIX.4.4|9=142|35=8|34=117|49=EXECUTOR|52=20240503-01:36:34.102|56=CLIENT1|6=949.27|11=116|14=2752|17=110|37=110|38=2752|39=2|40=2|54=1|55=VIIA4|150=2|151=0|10=165|8=FIX.4.4|9=142|35=8|34=118|49=EXECUTOR|52=20240503-01:36:35.101|56=CLIENT1|6=591.44|11=117|14=9663|17=111|37=111|38=9663|39=2|40=2|54=2|55=VALE3|150=2|151=0|10=176|8=FIX.4.4|9=144|35=8|34=119|49=EXECUTOR|52=20240503-01:36:36.108|56=CLIENT1|6=973.54|11=118|14=39004|17=112|37=112|38=39004|39=2|40=2|54=1|55=VIIA4|150=2|151=0|10=020|8=FIX.4.4|9=144|35=8|34=120|49=EXECUTOR|52=20240503-01:36:37.121|56=CLIENT1|6=720.99|11=119|14=58392|17=113|37=113|38=58392|39=2|40=2|54=1|55=PETR4|150=2|151=0|10=050|8=FIX.4.4|9=144|35=8|34=121|49=EXECUTOR|52=20240503-01:36:38.108|56=CLIENT1|6=593.64|11=120|14=16184|17=114|37=114|38=16184|39=2|40=2|54=1|55=VALE3|150=2|151=0|10=017|8=FIX.4.4|9=143|35=8|34=122|49=EXECUTOR|52=20240503-01:36:39.118|56=CLIENT1|6=963.3|11=121|14=40127|17=115|37=115|38=40127|39=2|40=2|54=1|55=PETR4|150=2|151=0|10=232|8=FIX.4.4|9=142|35=8|34=123|49=EXECUTOR|52=20240503-01:36:40.103|56=CLIENT1|6=578.89|11=122|14=9950|17=116|37=116|38=9950|39=2|40=2|54=2|55=VIIA4|150=2|151=0|10=190|8=FIX.4.4|9=144|35=8|34=124|49=EXECUTOR|52=20240503-01:36:41.101|56=CLIENT1|6=493.06|11=123|14=15660|17=117|37=117|38=15660|39=2|40=2|54=1|55=VALE3|150=2|151=0|10=007|8=FIX.4.4|9=144|35=8|34=125|49=EXECUTOR|52=20240503-01:36:42.097|56=CLIENT1|6=884.38|11=124|14=13174|17=118|37=118|38=13174|39=2|40=2|54=1|55=PETR4|150=2|151=0|10=051|8=FIX.4.4|9=144|35=8|34=126|49=EXECUTOR|52=20240503-01:36:43.097|56=CLIENT1|6=270.36|11=125|14=86788|17=119|37=119|38=86788|39=2|40=2|54=1|55=VIIA4|150=2|151=0|10=067|8=FIX.4.4|9=144|35=8|34=127|49=EXECUTOR|52=20240503-01:36:44.100|56=CLIENT1|6=403.72|11=126|14=93101|17=120|37=120|38=93101|39=2|40=2|54=2|55=VALE3|150=2|151=0|10=246|8=FIX.4.4|9=142|35=8|34=128|49=EXECUTOR|52=20240503-01:36:45.097|56=CLIENT1|6=139.33|11=127|14=6672|17=121|37=121|38=6672|39=2|40=2|54=1|55=VALE3|150=2|151=0|10=184|8=FIX.4.4|9=144|35=8|34=129|49=EXECUTOR|52=20240503-01:36:46.098|56=CLIENT1|6=807.51|11=128|14=88563|17=122|37=122|38=88563|39=2|40=2|54=2|55=VALE3|150=2|151=0|10=053|8=FIX.4.4|9=144|35=8|34=130|49=EXECUTOR|52=20240503-01:36:47.102|56=CLIENT1|6=373.07|11=129|14=82476|17=123|37=123|38=82476|39=2|40=2|54=1|55=VALE3|150=2|151=0|10=027|8=FIX.4.4|9=130|35=3|34=131|49=EXECUTOR|52=20240503-01:36:48.102|56=CLIENT1|45=0|58=The order 130 was reject because the exposition was exceeded.|10=021|8=FIX.4.4|9=143|35=8|34=132|49=EXECUTOR|52=20240503-01:36:49.096|56=CLIENT1|6=137.5|11=131|14=33558|17=124|37=124|38=33558|39=2|40=2|54=1|55=PETR4|150=2|151=0|10=255|8=FIX.4.4|9=144|35=8|34=133|49=EXECUTOR|52=20240503-01:36:50.100|56=CLIENT1|6=122.25|11=132|14=42536|17=125|37=125|38=42536|39=2|40=2|54=1|55=VALE3|150=2|151=0|10=254|8=FIX.4.4|9=130|35=3|34=134|49=EXECUTOR|52=20240503-01:36:51.101|56=CLIENT1|45=0|58=The order 133 was reject because the exposition was exceeded.|10=020|8=FIX.4.4|9=144|35=8|34=135|49=EXECUTOR|52=20240503-01:36:52.105|56=CLIENT1|6=931.54|11=134|14=84178|17=126|37=126|38=84178|39=2|40=2|54=2|55=VALE3|150=2|151=0|10=038|8=FIX.4.4|9=130|35=3|34=136|49=EXECUTOR|52=20240503-01:36:53.103|56=CLIENT1|45=0|58=The order 135 was reject because the exposition was exceeded.|10=028|8=FIX.4.4|9=144|35=8|34=137|49=EXECUTOR|52=20240503-01:36:54.102|56=CLIENT1|6=175.31|11=136|14=50759|17=127|37=127|38=50759|39=2|40=2|54=1|55=VALE3|150=2|151=0|10=033|8=FIX.4.4|9=144|35=8|34=138|49=EXECUTOR|52=20240503-01:36:55.106|56=CLIENT1|6=317.23|11=137|14=55140|17=128|37=128|38=55140|39=2|40=2|54=2|55=VIIA4|150=2|151=0|10=022|8=FIX.4.4|9=142|35=8|34=139|49=EXECUTOR|52=20240503-01:36:56.108|56=CLIENT1|6=476.05|11=138|14=5772|17=129|37=129|38=5772|39=2|40=2|54=2|55=VALE3|150=2|151=0|10=203|8=FIX.4.4|9=142|35=8|34=140|49=EXECUTOR|52=20240503-01:36:57.118|56=CLIENT1|6=762.36|11=139|14=6826|17=130|37=130|38=6826|39=2|40=2|54=1|55=PETR4|150=2|151=0|10=205|8=FIX.4.4|9=144|35=8|34=141|49=EXECUTOR|52=20240503-01:36:58.099|56=CLIENT1|6=603.78|11=140|14=50078|17=131|37=131|38=50078|39=2|40=2|54=2|55=VIIA4|150=2|151=0|10=030|8=FIX.4.4|9=141|35=8|34=142|49=EXECUTOR|52=20240503-01:36:59.098|56=CLIENT1|6=83.34|11=141|14=6279|17=132|37=132|38=6279|39=2|40=2|54=2|55=VALE3|150=2|151=0|10=143|8=FIX.4.4|9=144|35=8|34=143|49=EXECUTOR|52=20240503-01:37:00.097|56=CLIENT1|6=587.74|11=142|14=80948|17=133|37=133|38=80948|39=2|40=2|54=2|55=VIIA4|150=2|151=0|10=049|8=FIX.4.4|9=142|35=8|34=144|49=EXECUTOR|52=20240503-01:37:01.102|56=CLIENT1|6=183.95|11=143|14=6386|17=134|37=134|38=6386|39=2|40=2|54=2|55=PETR4|150=2|151=0|10=200|8=FIX.4.4|9=141|35=8|34=145|49=EXECUTOR|52=20240503-01:37:02.098|56=CLIENT1|6=584|11=144|14=74909|17=135|37=135|38=74909|39=2|40=2|54=2|55=PETR4|150=2|151=0|10=175|8=FIX.4.4|9=144|35=8|34=146|49=EXECUTOR|52=20240503-01:37:03.098|56=CLIENT1|6=212.02|11=145|14=37147|17=136|37=136|38=37147|39=2|40=2|54=2|55=PETR4|150=2|151=0|10=045|8=FIX.4.4|9=141|35=8|34=147|49=EXECUTOR|52=20240503-01:37:04.094|56=CLIENT1|6=83.87|11=146|14=5439|17=137|37=137|38=5439|39=2|40=2|54=2|55=VIIA4|150=2|151=0|10=154|8=FIX.4.4|9=144|35=8|34=148|49=EXECUTOR|52=20240503-01:37:05.106|56=CLIENT1|6=285.92|11=147|14=52145|17=138|37=138|38=52145|39=2|40=2|54=1|55=PETR4|150=2|151=0|10=053|8=FIX.4.4|9=144|35=8|34=149|49=EXECUTOR|52=20240503-01:37:06.103|56=CLIENT1|6=520.05|11=148|14=42596|17=139|37=139|38=42596|39=2|40=2|54=2|55=VIIA4|150=2|151=0|10=042|8=FIX.4.4|9=144|35=8|34=150|49=EXECUTOR|52=20240503-01:37:07.099|56=CLIENT1|6=994.18|11=149|14=38590|17=140|37=140|38=38590|39=2|40=2|54=1|55=VIIA4|150=2|151=0|10=050|8=FIX.4.4|9=144|35=8|34=151|49=EXECUTOR|52=20240503-01:37:08.100|56=CLIENT1|6=543.52|11=150|14=31940|17=141|37=141|38=31940|39=2|40=2|54=1|55=PETR4|150=2|151=0|10=019|8=FIX.4.4|9=130|35=3|34=152|49=EXECUTOR|52=20240503-01:37:09.101|56=CLIENT1|45=0|58=The order 151 was reject because the exposition was exceeded.|10=024|8=FIX.4.4|9=142|35=8|34=153|49=EXECUTOR|52=20240503-01:37:10.098|56=CLIENT1|6=380.59|11=152|14=6529|17=142|37=142|38=6529|39=2|40=2|54=2|55=VIIA4|150=2|151=0|10=191|8=FIX.4.4|9=144|35=8|34=154|49=EXECUTOR|52=20240503-01:37:11.108|56=CLIENT1|6=251.97|11=153|14=85984|17=143|37=143|38=85984|39=2|40=2|54=1|55=PETR4|150=2|151=0|10=070|8=FIX.4.4|9=144|35=8|34=155|49=EXECUTOR|52=20240503-01:37:12.121|56=CLIENT1|6=920.14|11=154|14=17140|17=144|37=144|38=17140|39=2|40=2|54=2|55=PETR4|150=2|151=0|10=021|8=FIX.4.4|9=144|35=8|34=156|49=EXECUTOR|52=20240503-01:37:13.101|56=CLIENT1|6=110.88|11=155|14=43396|17=145|37=145|38=43396|39=2|40=2|54=1|55=PETR4|150=2|151=0|10=049|8=FIX.4.4|9=144|35=8|34=157|49=EXECUTOR|52=20240503-01:37:14.097|56=CLIENT1|6=649.87|11=156|14=50115|17=146|37=146|38=50115|39=2|40=2|54=1|55=VIIA4|150=2|151=0|10=040|8=FIX.4.4|9=144|35=8|34=158|49=EXECUTOR|52=20240503-01:37:15.095|56=CLIENT1|6=812.79|11=157|14=51691|17=147|37=147|38=51691|39=2|40=2|54=2|55=VIIA4|150=2|151=0|10=057|